:1000000039C0000052C0000050C000004EC00000C7
:100010004CC000004AC0000048C0000046C00000BC
:1000200044C0000042C0000040C000003EC00000CC
:100030003CC000003AC0000038C0000037C00000DB
:1000400034C0000032C0000030C000002EC00000EC
:100050002CC000002AC0000028C0000026C00000FC
:1000600024C0000022C0000020C000001EC000000C
:100070001CC0000011241FBECFEFD2E0DEBFCDBFF9
:1000800011E0A0E0B1E0ECE7F2E002C005900D92D3
:10009000AC32B107D9F711E0ACE2B1E001C01D927A
:1000A000A633B107E1F72ED0E8C0AACF1F920F9276
:1000B0000FB60F9211248F939F93809134019091EA
:1000C0003501019690933501809334019F918F9172
:1000D0000F900FBE0F901F9018959ED080E085D096
:1000E000E1E8F0E080818A60808388EE93E090937D
:1000F000890080938800EFE6F0E080818260808351
:1001000078940895CFEFD2E0DEBFCDBF84B7877F6C
:1001100084BF88E10FB6F89480936000109260006D
:100120000FBE90E880E00FB6F89490936100809342
:1001300061000FBED2DF81E08093330180933301F1
:10014000C0E0D1E007C08A81882319F0E881F981F5
:100150000995249681E0C430D807A9F72497FACFEF
:10016000CF93DF936EE271E083E090E064D0882368
:1001700009F438C080913201883250F01092320177
:10018000CCE2D1E0BE0182E090E055D08823D1F3EB
:1001900080913201E82FFF27EC5FFE4F9081909312
:1001A00031018F5FE82FFF27EC5FFE4F9081909326
:1001B00030018F5F8093320180E029D080E027D02A
:1001C0008091310124D08091300121D080E028D06D
:1001D00080E01DD080E01BD080E019D080E017D0F7
:1001E00081E01ED0DF91CF91089594B1966094B9CB
:1001F000289A909164009B7F909364009CB59365CE
:100200009CBD882319F08CB580628CBD08958EBD8D
:100210000DB407FEFDCF08958AB18C608AB90895A8
:10022000882319F0813031F403C05B9A5B980895FC
:100230005A9A5A980895AC01FB018FB7F89420910F
:100240003401309135018FBF8081918128173907A2
:1002500028F0B901681B790BCB0104C080959095FB
:10026000820F931F8417950728F03183208381E044
:0C02700090E0089580E090E00895FFCF3A
:10027C00B00001000000000E00FF000000F300DBE6
:10028C0000CF000000D300D3007E0000000000006F
:0C029C0000000000000000000000000056
:00000001FF
