:100000009FC00000B8C00000B6C00000B4C000002F
:10001000B2C00000B0C00000AEC00000ACC0000024
:10002000AAC00000A8C00000A6C00000FAC50000D9
:10003000A2C00000A0C000009EC000009CC0000044
:100040009AC0000098C0000096C0000095C0000053
:1000500092C0000090C000008EC000008CC0000064
:100060008AC0000088C0000086C0000084C0000074
:1000700082C000001201100102000008EB034B20B7
:1000800000000102030109024300020100C032091D
:1000900004000001020201000524001001052401F2
:1000A0000301042402060524060001070582030853
:1000B000000209040100020A000000070504021002
:1000C0000000070583021000000403090418034A16
:1000D000006F007200670065002000500069006E2C
:1000E0000074006F00200061006B0061002000437D
:1000F0000061007300610069006E0068006F00001D
:10010000002A03420069006300790063006C006507
:100110000020004C0045004400200050004F0056D5
:100120000000001A03300030003000300030003092
:10013000003000300030003000300030000000009F
:1001400011241FBECFEFD2E0DEBFCDBF11E0A0E093
:10015000B1E0EEEAFDE002C005900D92AC31B107CE
:10016000D9F711E0ACE1B1E001C01D92A235B107B1
:10017000E1F711D11BC644CF1F920F920FB60F9219
:1001800011248F939F9380914D0190914E01019680
:1001900090934E0180934D019F918F910F900FBED0
:1001A0000F901F9018955C9A0895489902C05C9A28
:1001B00008955C9808951F93CF93DF938091510128
:1001C000882309F448C084E08093E9008091E80026
:1001D00085FD0AC014C080914A018031E1F360912D
:1001E000F100CE015BD202C0C6E3D1E08091F20003
:1001F000882389F78091E8008F778093E80083E077
:100200008093E90080913501882329F18091E800ED
:1002100085FFFCCF1091F200C1E2D1E004C0CE0115
:100220000FD28093F10080913501882321F08091D5
:10023000F2008031A0F38091E8008F778093E8008E
:10024000103149F48091E80085FFFCCF8091E800EF
:100250008F778093E800DF91CF911F91089560E040
:100260008EEF95E04DD260E08BED90E049D260E0FA
:100270008AE092E045D260E085ED90E041D261E015
:1002800083ED90E03DC261E08EEF95E039D260E011
:1002900083ED90E035C220E041EC68E070E082E060
:1002A000CFD224E041E860E170E083E0C9D224E0ED
:1002B00040E860E170E084E0C3D261E08BED90E063
:1002C0001FD261E08AE092E01BD25C980895982FDB
:1002D000E4E1F1E08091F1008091F100913239F098
:1002E000923209F447C0903209F054C022C0613AFA
:1002F00009F050C08091E800877F8093E8008191E9
:100300008093F10081E0EB31F807C9F78091E800B4
:100310008E7F8093E8008091E80080FFFCCF809181
:10032000E80082FFFCCF8091E8008B7F8093E8009B
:100330000895613279F58091E800877F8093E80025
:100340008091E80082FFFCCF8091F100819381E0F1
:10035000EB31F807C9F78091E8008B7F8093E800C4
:100360008091E8008E7F8093E8008091E80080FD16
:1003700011C0FBCF613271F48091E800877F8093D8
:10038000E8008091E8008E7F8093E8008091E8008B
:1003900080FFFCCF0895CFEFD2E0DEBFCDBF84B7A2
:1003A000877F84BF88E10FB6F89480936000109235
:1003B00060000FBE90E880E00FB6F8949093610063
:1003C000809361000FBE8AB182618AB98DE787BDD3
:1003D00092E094BD83E085BD90936E0086E391E04A
:1003E00025D181E291E022D115E010934C0117D282
:1003F00010934C01C0E0D1E007C08A81882319F036
:10040000E881F9810995249681E0C431D807A9F7DC
:100410006497FACFCF93DF9380914A01882309F440
:10042000C5C080911C01882329F486E391E008D19E
:1004300080931D0190911D019230D1F0933020F4F2
:10044000913009F0B3C007C0933009F43EC0943036
:1004500009F0ACC07EC080911C01882311F49093F8
:100460001C0180913501803108F0A0C061E083C09B
:1004700080911C018823E9F484E080931C0119C059
:10048000823061F0833018F4813069F409C0833020
:1004900039F0843041F460911D0103C061E001C076
:1004A00060E0CE01FBD080911C01815080931C0143
:1004B00002C0C1E2D1E080913501803108F076C000
:1004C00080911C018823E1F671C080911C01882372
:1004D00019F485E080931C0180911C01853071F531
:1004E00080913501803150F563E081E291E0D6D012
:1004F00080911C01815080931C0120C0823049F002
:10050000833018F48130E1F40BC0833011F0843073
:10051000B9F480E018D4CE0193D02FD425D408C0EC
:1005200080E011D4CE018CD028D41ED42C9A2C98E3
:1005300080911C01815080931C0102C0C6E3D1E070
:1005400080914A01882391F180911C018823B1F6A2
:100550002DC080911C01882319F482E080931C0136
:1005600080911C01813059F0823001F58091350174
:100570008031E0F464E081E291E090D012C086E343
:1005800091E05ED0813031F461E085ED90E0B8D04B
:10059000599A07C060E085ED90E0B2D08BB18D7EB6
:1005A0008BB980911C01815080931C01DF91CF9108
:1005B00008950F931F93CF93DF93D901E801823001
:1005C00031F1833039F08130F9F482E190E0E4E7F1
:1005D000F0E021C0613059F0613028F0623059F00C
:1005E000633091F40CC0E9ECF0E084910BC0EDECC9
:1005F000F0E0849107C0E1E0F1E0849103C0E3E220
:10060000F1E08491992707C080E090E00AC083E47C
:1006100090E0E6E8F0E0ED93FC939983888381E035
:1006200090E0DF91CF911F910F910895FC018FB75A
:10063000F894F18BE08BF38BE28B148A8FBF0895D3
:10064000CF93DF93DC014FB7F894EC018C898823BA
:1006500019F480E090E017C0ED01EA89FB89E081A0
:100660008A899B8901969B8B8A8B8C8981508C8B84
:100670002A893B89CD0140962817390711F4BB8B95
:10068000AA8B81E090E04FBF019719F080E090E0E5
:1006900002C08E2F9927DF91CF910895CF93DF93DA
:1006A000DC014FB7F894EC018C89803179F48A89A8
:1006B0009B8901969B8B8A8B2A893B89CD01409629
:1006C0002817390739F4BB8BAA8B04C0FD01848934
:1006D0008F5F848BED01E889F98960838889998926
:1006E0000196998B888B28893989CD0140962817E6
:1006F000390711F4B98BA88B4FBFDF91CF910895C3
:100700009C01E0E0F1E008C08081918182179307AD
:1007100011F462830895349680914C019927880FD3
:10072000991F880F991F80509F4FE817F90761F7AD
:1007300008950F931F93CF93DF93CDB7DEB7249720
:100740000FB6F894DEBF0FBECDBF1092E20010923C
:10075000E100109251011092500110924F0119BC0A
:1007600089B5826089BD09B400FEFDCF8091D800B3
:10077000982F9F779093D80080688093D8008091BD
:1007800063008E7F809363008091D8008F7D80937B
:10079000D8008E010D5F1F4F9E012F5F3F4F40E03D
:1007A00050E060E081E005DF882331F0E981FA81E3
:1007B0003796E491E0931B018091E0008E7F809357
:1007C000E0008091E20081608093E2008091E2008D
:1007D00088608093E20081E08093500124960FB6F8
:1007E000F894DEBF0FBECDBFDF91CF911F910F9167
:1007F000089580915101882309F031DD1092E200C3
:100800001092E100109251011092500110924F018C
:100810008091D8008F778093D80019BC08951F93DA
:1008200080915001882309F0E4DF11E0109350011A
:10083000109251017EDF1093510178941F91089519
:100840008093E9008091EB0081608093EB004093FE
:10085000EC003091ED0077706930710510F480E0A4
:1008600007C06131710518F080E390E004C081E0B9
:100870008295807F99273270232B282B2093ED00BF
:100880008091ED0082608093ED000895EF92FF92D9
:100890000F931F93CF93DF93CDB7DEB728970FB693
:1008A000F894DEBF0FBECDBF6091F100262F332735
:1008B0009091F100953009F4B6C0963048F491302B
:1008C00009F466C0913070F0933009F07AC160C0CD
:1008D000983009F432C1993009F44AC1963009F0D0
:1008E00070C1C1C0822F807E09F06BC12F71307042
:1008F0002330310509F465C18091F1008091F10048
:100900008091F1002130310531F02230310521F1A3
:10091000232B19F058C190E028C08E01095F1F4FAA
:100920009E012F5F3F4F40E050E060914F0182E019
:1009300040DE882309F447C1E981FA813796E491C2
:10094000FF278E2F807C11F092E001C090E08E2F67
:10095000807A59F0916009C087708093E900909186
:10096000EB00909591701092E9008091E800877FEC
:100970008093E8009093F1001092F1008091E800DC
:100980008E7F8093E8008091E80082FFFCCFEAC070
:10099000822F807E09F015C12F7130702330310510
:1009A00009F40FC14091F1008091F1008091F100B4
:1009B0002230310509F007C1442309F004C1282F72
:1009C00027702093E9008091EB0080FF29C022234B
:1009D000D9F09130A1F48091EB0080618093EB001D
:1009E00081E090E002C0880F991F2A95E2F780937A
:1009F000EA001092EA008091EB00886003C08091C9
:100A0000EB0080628093EB001092E9008091E80097
:100A1000877F8093E8008091E8008E7F8093E800D4
:100A20001092E900D0C0662309F0CBC09091F1008C
:100A30008091E3009F738078982B9093E3008091DE
:100A4000E800877F8093E8008091E8008E7F8093A4
:100A5000E8008091E80080FFFCCF8091E30080688F
:100A60008093E300B0C06091F1008091F10020918B
:100A7000F1004091F100E090F100F090F100552775
:100A8000542F44273327422B532B8E01095F1F4FCE
:100A90009E012D5F3F4F8DDD882309F494C0809126
:100AA000E800877F8093E8008F2D9927582F4427EF
:100AB0008E2D99272F813885482B592B24173507E0
:100AC00008F4A90190911B01692F7727AB81BC81A4
:100AD0009A0116C08091E80080FD09C0FBCFFD019E
:100AE0001196E491E093F1002150304021F0809183
:100AF000F2008917A0F38091E8008E7F8093E800D0
:100B00002115310521F08091E80082FFE3CF80912B
:100B1000E80082FD27C0CA0135D1892B49F48091B4
:100B2000E80080FFFCCF8091E8008E7F8093E80092
:100B30008091E80082FFFCCF15C0603809F041C009
:100B40008091E800877F8093E80080914F01809337
:100B5000F1008091E8008E7F8093E8008091E800AA
:100B600082FFFCCF8091E8008B7F8093E8002BC050
:100B7000662339F5F090F100E0904F018E01095F96
:100B80001F4F9E012B5F3F4F40E050E081E011DDA1
:100B90008823C9F0ED81FE817196E491EF1598F0FC
:100BA000F0924F018091E800877F8093E800809168
:100BB000E8008E7F8093E800EE2009F4C3D06BDB61
:100BC00002C0892F84DB8091E80083FF0AC08091F6
:100BD000EB0080628093EB008091E800877F809338
:100BE000E80028960FB6F894DEBF0FBECDBFDF91A8
:100BF000CF911F910F91FF90EF9008951F938091D7
:100C00005101882361F01091E9001092E900809170
:100C1000E80083FF01C03ADE17701093E9001F91CE
:100C200008951F920F920FB60F9211242F933F93A6
:100C30004F935F936F937F938F939F93AF93BF93E4
:100C4000EF93FF938091E10080FF1DC08091E2004F
:100C500080FF19C08091E1008E7F8093E100809138
:100C6000E2008E7F8093E2008091E20080618093B9
:100C7000E2008091D80080628093D80019BC62D0D5
:100C800010925101ECDA8091E10084FF24C0809140
:100C9000E20084FF20C019BC89B5826089BD09B417
:100CA00000FEFDCF8091D8008F7D8093D800809189
:100CB000E1008F7E8093E1008091E2008F7E80933F
:100CC000E2008091E20081608093E20081E0809305
:100CD0005101D9DA37D08091E10083FF22C08091A1
:100CE000E20083FF1EC08091E100877F8093E100D6
:100CF00010924F018091E1008E7F8093E1008091FE
:100D0000E2008E7F8093E2008091E2008061809318
:100D1000E20060911B01772720E040E080E090DD59
:100D200011D0FF91EF91BF91AF919F918F917F91E2
:100D30006F915F914F913F912F910F900FBE0F9048
:100D40001F9018950895909164009B7F9093640084
:100D500094B1976194B99CB591659CBD882319F0B5
:100D60008CB580628CBD08958CB58F7B8CBDE4E61C
:100D7000F0E080818460808308958EBD0DB407FE0D
:100D8000FDCF0895AA1BBB1B51E107C0AA1FBB1FC3
:100D9000A617B70710F0A61BB70B881F991F5A9507
:0E0DA000A9F780959095BC01CD010895FFCF75
:100DAE00FE050000DB0000000A020000D300000078
:0C0DBE00D500000080250000000008089F
:00000001FF
