:020000021000EC
:10E000003BC0000054C0000052C0000050C00000DF
:10E010004EC000004CC000004AC0000048C00000D4
:10E0200046C0000044C0000042C000003CC60000E2
:10E030003EC000003CC000003AC0000038C00000F4
:10E0400036C0000034C0000032C0000030C0000004
:10E050002EC000002CC000002AC0000028C0000014
:10E0600026C0000024C0000022C0000020C0000024
:10E070001EC000000403090411241FBECFEFD2E02C
:10E08000DEBFCDBF11E0A0E0B1E0ECE1FEEE02C0EA
:10E0900005900D92A036B107D9F711E0A0E6B1E0E6
:10E0A00001C01D92A537B107E1F72BD0B6C6A8CFA6
:10E0B0000895109200010895982F0FC08091F200EA
:10E0C000882349F48091E8008B7F8093E800809159
:10E0D000E80082FFFCCF8091F100915078F708951D
:10E0E00080916C0190916B01A0916E01B0916D01D6
:10E0F0009093660180936501B0936801A0936701D6
:10E100000895CFEFD2E0DEBFCDBF84B7877F84BF55
:10E1100088E10FB6F89480936000109260000FBE03
:10E1200090E880E00FB6F8949093610080936100CE
:10E130000FBE81E085BF82E085BFB4D301C0A0D50A
:10E14000809100018823D9F797D381E085BF15BE60
:10E150001BB81AB8E0916201F09163010995EF9242
:10E16000FF920F931F93CF93DF93482F8091F1007D
:10E170008091F1008091F1008091F1002091F100F7
:10E1800033278091F1009927782F6627622B732B14
:10E190007093700160936F01433009F47FC2443083
:10E1A00030F4413071F0423009F0D1C2F8C145304D
:10E1B00009F4A4C2453008F490C2463009F0C7C241
:10E1C000B5C28091E800877F8093E80061157105F2
:10E1D00009F422C18091E80082FFFCCF9091F10008
:10E1E000909369019B01215030403093700120933E
:10E1F0006F01EAE6F1E009C08091F10081932150BE
:10E20000304041E0EF36F40721F08091F20088239E
:10E2100099F73093700120936F01809160018823FA
:10E22000D1F0943049F480916A01882341F48091BF
:10E230006B018F3F21F460C0953009F4B3C08AE0D0
:10E240008093010183E0809361018091EB00806203
:10E250008093EB00E1C0943009F44EC0953030F467
:10E26000913059F0933009F0D7C01BC0953009F4B4
:10E2700099C0963009F0D0C0C3C080916A01823045
:10E2800008F0CAC02DDF209165013091660183E05E
:10E29000F90180935700E89507B600FCFDCF85E0B3
:10E2A00008C080916A01882311F0823029F418DFB8
:10E2B00089E080930101B0C0813009F0ADC020E059
:10E2C00030E040E050E0F90184918F3F39F08AE07E
:10E2D0008093010185E0809361019EC02F5F3F4FD5
:10E2E0004F4F5F4F2030F0EE3F07F1E04F07F0E077
:10E2F0005F0709F491C0E7CF80916A01833011F57F
:10E3000080916F0190917001892B09F085C08091F7
:10E310006B01882361F488E190E02CE00FB6F8945B
:10E32000A895809360000FBE20936000FFCFA0915E
:10E330006E01B0916D01B0936301A09362011092E0
:10E3400000016AC0882309F067C080916B018F3F8C
:10E3500009F062C040E050E060E070E09A0183E0C4
:10E36000FA0180935700E89507B600FCFDCF85E0E1
:10E37000F90180935700E89507B600FCFDCF40589F
:10E380005F4F6F4F7F4F403020EE520721E0620712
:10E3900020E0720719F781E180935700E895109209
:10E3A00060013AC080916A01882339F4E0916B01E1
:10E3B000FF27E45AFE4FE08120C08130E9F48091CC
:10E3C0006B01803339F481E2E0E0F0E080935700A4
:10E3D000E49113C0813339F481E2E2E0F0E080930C
:10E3E0005700E4910AC0803639F481E2E4E0F0E0BD
:10E3F00080935700E49101C0E0E0E09371010CC00C
:10E4000080916A01833041F480916B01882321F46B
:10E4100080916C018093640180910101853009F045
:10E42000AFC080916F0190917001009721F482E05C
:10E4300080930101A5C08A979093700180936F012A
:10E440008AE13ADE60916701709168016F5F7F4FEA
:10E450008091650190916601681B790B81C0809164
:10E46000F200882349F48091E8008B7F8093E800D4
:10E470008091E80082FFFCCF80916A01A091650144
:10E48000B0916601882309F053C0809164017D0139
:10E49000082F11272091F10033278091F10041E0EE
:10E4A0009927982F8827822B932B0C01FD014093ED
:10E4B0005700E89511249E0122503040309370019E
:10E4C00020936F0162507040CD01029690936601D7
:10E4D000809365018F779070009719F480E890E041
:10E4E00006C06115710519F0232B09F039C022E02F
:10E4F00030E040E050E0E20EF31E041F151FA701BC
:10E5000025E0F701E81BF90BCF01FC012093570030
:10E51000E89507B600FCFDCF6115710509F183E0B0
:10E52000FA0180935700E89507B600FE19C0FCCFAA
:10E530008091F100082E65D480916F019091700157
:10E5400001979093700180936F01615070408091AA
:10E550006501909166010196909366018093650133
:10E560006115710539F0C0916F01D091700120974C
:10E5700009F075CF81E180935700E89580E19CDD3B
:10E580008091E8008B7F8093E8008091E8008E7F87
:10E590008093E8008091E80080FDD9C0FBCF809196
:10E5A000E800877F8093E8008091E80080FFFCCF3F
:10E5B00080910101893029F0809171018093F100EF
:10E5C00063C02091650130916601409167015091CF
:10E5D00068014F5F5F4F421B530B10916A0111237B
:10E5E00059F1123009F040C027C08091F20080320A
:10E5F00049F48091E8008E7F8093E8008091E800E4
:10E6000080FFFCCF112359F4F901859194918093F7
:10E61000F100892F99278093F10082E006C0D9018B
:10E62000E8D3802D8093F10081E09927681B790B56
:10E63000481B590B280F391F4115510549F43093D8
:10E640006601209365017093700160936F0119C09A
:10E650006115710551F630936601209365011092A2
:10E66000700110926F0110C0113049F42093F10035
:10E67000832F99278093F10082E080930101452B3D
:10E6800019F482E0809301018091E8008E7F8093ED
:10E69000E8008091E80082FFFCCF42C08091E80052
:10E6A000877F8093E800809161018093F100109250
:10E6B000F1001092F1001092F1008091010180931D
:10E6C000F1001092F1008091E8008E7F8093E800C5
:10E6D0008091E80082FFFCCF23C08091E800877F13
:10E6E0008093E800109261018091E8008E7F809312
:10E6F000E8008091E80080FD2AC0FBCF8091E8000F
:10E70000877F8093E800809101018093F1008091E0
:10E71000E8008E7F8093E8008091E80082FFFCCFC4
:10E720008091E8008B7F8093E80011C08091E80021
:10E73000877F8093E80082E0809301018091E80068
:10E740008E7F8093E8008091E80080FFFCCFDF910E
:10E75000CF911F910F91FF90EF9008950F931F930A
:10E76000F901D801823029F0833069F08130A9F4B1
:10E7700005C024E131E08BE190E016C022E031E0F9
:10E7800082E190E011C0662359F0613031F480914C
:10E790002F0199272FE231E007C080E090E00AC006
:10E7A00024E730EE84E090E0318320838D939C93C6
:10E7B00081E090E01F910F9108950F931F93CF93E5
:10E7C000DF93CDB7DEB724970FB6F894DEBF0FBE48
:10E7D000CDBF1092E2001092E100109274011092ED
:10E7E00073011092720119BC89B5826089BD09B4A8
:10E7F00000FEFDCF8091D800982F9F779093D8008E
:10E8000080688093D800809163008E7F809363003E
:10E810008091D8008F7D8093D8008E010D5F1F4FAF
:10E820009E012F5F3F4F40E050E060E081E096DFC7
:10E83000882329F0E981FA81878180935B018091A7
:10E84000E0008E7F8093E0008091E2008160809301
:10E85000E2008091E20088608093E20081E0809392
:10E86000730124960FB6F894DEBF0FBECDBFDF91C3
:10E87000CF911F910F91089580917401882309F021
:10E8800018DC1092E2001092E100109274011092D4
:10E890007301109272018091D8008F778093D80015
:10E8A00019BC08951F9380917301882309F0E4DF58
:10E8B00011E010937301109274017FDF10937401C3
:10E8C00078941F9108958093E9008091EB00816016
:10E8D0008093EB004093EC003091ED00777069304D
:10E8E000710510F480E007C06131710518F080E314
:10E8F00090E004C081E08295807F99273270232BBD
:10E90000282B2093ED008091ED0082608093ED0034
:10E910000895EF92FF920F931F93CF93DF93CDB79C
:10E92000DEB728970FB6F894DEBF0FBECDBF60915B
:10E93000F100262F33279091F100953009F4B6C0ED
:10E94000963048F4913009F466C0913070F09330FD
:10E9500009F079C160C0983009F432C1993009F4E6
:10E960004AC1963009F06FC1C1C0822F807E09F084
:10E970006AC12F7130702330310509F464C1809170
:10E98000F1008091F1008091F1002130310531F0EA
:10E990002230310521F1232B19F057C190E028C016
:10E9A000609172018E01095F1F4F9E012F5F3F4FE3
:10E9B00040E050E082E0D2DE882309F446C1E981DC
:10E9C000FA818781282F3327822F807C11F092E0F3
:10E9D00001C090E0822F807A59F0916009C0877061
:10E9E0008093E9009091EB00909591701092E9006E
:10E9F0008091E800877F8093E8009093F100109267
:10EA0000F1008091E8008E7F8093E8008091E8001B
:10EA100082FFFCCFEAC0822F807E09F014C12F71E3
:10EA200030702330310509F40EC14091F10080911E
:10EA3000F1008091F1002230310509F006C1442334
:10EA400009F003C1282F27702093E9008091EB0083
:10EA500080FF29C02223D9F09130A1F48091EB00EE
:10EA600080618093EB0081E090E002C0880F991FE5
:10EA70002A95E2F78093EA001092EA008091EB0079
:10EA8000886003C08091EB0080628093EB0010925D
:10EA9000E9008091E800877F8093E8008091E8009A
:10EAA0008E7F8093E8001092E900CFC0662309F0C2
:10EAB000CAC09091F1008091E3009F738078982BF9
:10EAC0009093E3008091E800877F8093E800809135
:10EAD000E8008E7F8093E8008091E80080FFFCCF03
:10EAE0008091E30080688093E300AFC06091F10003
:10EAF0008091F1002091F1004091F1005527542FB1
:10EB000044273327422B532BE090F100F090F10083
:10EB10008E01095F1F4F9E012D5F3F4F1FDE88232F
:10EB200009F493C08091E800877F8093E8008F2DDF
:10EB30009927582F44278E2D99272F813885482BC8
:10EB4000592B2417350708F4A90190915B01692F0F
:10EB500077279A0118C08091E80080FD0BC0FBCF99
:10EB6000EB81FC818191FC83EB838093F100215048
:10EB7000304021F08091F200891790F38091E800F5
:10EB80008E7F8093E8002115310521F08091E80007
:10EB900082FFE1CF8091E80082FD27C0CA0115D134
:10EBA000892B49F48091E80080FFFCCF8091E80038
:10EBB0008E7F8093E8008091E80082FFFCCF15C033
:10EBC000603809F040C08091E800877F8093E800BA
:10EBD000809172018093F1008091E8008E7F809394
:10EBE000E8008091E80082FFFCCF8091E8008B7FF5
:10EBF0008093E8002AC0662331F5F090F100E090A0
:10EC000072018E01095F1F4F9E012B5F3F4F40E055
:10EC100050E081E0A3DD8823C1F0ED81FE81818990
:10EC20008F1598F0F09272018091E800877F8093B1
:10EC3000E8008091E8008E7F8093E800EE2009F4E0
:10EC4000C3D0C2D002C0892F8ADA8091E80083FF46
:10EC50000AC08091EB0080628093EB008091E80015
:10EC6000877F8093E80028960FB6F894DEBF0FBE2A
:10EC7000CDBFDF91CF911F910F91FF90EF9008953D
:10EC80001F9380917401882361F01091E900109224
:10EC9000E9008091E80083FF01C03BDE177010930C
:10ECA000E9001F9108951F920F920FB60F92112441
:10ECB0002F933F934F935F936F937F938F939F9384
:10ECC000AF93BF93EF93FF938091E10080FF1DC04E
:10ECD0008091E20080FF19C08091E1008E7F8093D7
:10ECE000E1008091E2008E7F8093E2008091E2005B
:10ECF00080618093E2008091D80080628093D80088
:10ED000019BC62D010927401D4D98091E10084FFC3
:10ED100024C08091E20084FF20C019BC89B58260C4
:10ED200089BD09B400FEFDCF8091D8008F7D80930E
:10ED3000D8008091E1008F7E8093E1008091E20015
:10ED40008F7E8093E2008091E20081608093E200F8
:10ED500081E080937401ACD937D08091E10083FFCA
:10ED600022C08091E20083FF1EC08091E100877F76
:10ED70008093E100109272018091E1008E7F809378
:10ED8000E1008091E2008E7F8093E2008091E200BA
:10ED900080618093E20060915B01772720E040E092
:10EDA00080E091DD11D0FF91EF91BF91AF919F91E4
:10EDB0008F917F916F915F914F913F912F910F9024
:10EDC0000FBE0F901F9018950895AA1BBB1B51E111
:10EDD00007C0AA1FBB1FA617B70710F0A61BB70BCB
:10EDE000881F991F5A95A9F780959095BC01CD0170
:10EDF0000895F999FECFB2BDA1BDF89A119600B45D
:10EE00000895F999FECFB2BDA1BD00BC11960FB611
:0CEE1000F894FA9AF99A0FBE0895FFCF0B
:10EE1C0001021201100100000020EB03FA2F000088
:10EE2C000001000109021B00010100C032090400AD
:10EE3C000000FE0102000221030000000C01012A67
:10EE4C00034D007900550053004200200044004659
:10EE5C00005500200042006F006F0074006C006FC2
:10EE6C0000610064006500720000000810DCFB000B
:040000031000E00009
:00000001FF
